:020000040800F2
:10000000280D00209D010008A501000825250008F5
:10001000A9010008AB010008AD01000800000000C4
:10002000000000000000000000000000AF01000818
:10003000B101000800000000B3010008CD4600082F
:10004000B7010008B7010008B7010008B7010008B0
:10005000B7010008B7010008B7010008B7010008A0
:10006000B7010008B7010008B7010008B701000890
:10007000B7010008B7010008B7010008B701000880
:10008000B7010008B7010008DD020008B701000849
:10009000B7010008B7010008B7010008B701000860
:1000A00099470008C1470008B7010008B7010008D8
:1000B000B7010008D9470008B7010008B7010008D8
:1000C000B7010008B7010008B7010008B701000830
:1000D000B7010008C1580008B7010008B7010008BF
:1000E000B7010008B7010008B7010008B701000810
:1000F000B7010008B7010008B7010008B701000800
:10010000B7010008B7010008B7010008B7010008EF
:10011000B7010008B7010008B7010008B7010008DF
:10012000B7010008B7010008B7010008B7010008CF
:10013000B7010008B7010008B7010008B7010008BF
:10014000B7010008B7010008B7010008B7010008AF
:10015000B7010008B7010008B7010008B70100089F
:10016000B7010008B7010008B7010008B70100088F
:10017000B7010008B7010008B7010008000000003F
:10018000B7010008B7010008DFF80CD000F068F8EC
:100190000048004761590008280D002006488047A4
:1001A00006480047FEE7FEE7FEE7FEE7FEE7FEE75C
:1001B000FEE7FEE7FEE7FEE77D470008890100084D
:1001C0002DE9F05F0546002092469B46884606468C
:1001D000814640241BE0284641464746224600F01F
:1001E0002FF853465A46C01A914110D3114618466B
:1001F000224600F016F82D1A67EB01084F462246FA
:100200000120002100F00DF817EB00094E41201EDF
:10021000A4F10104DFDC484631462A464346BDE8E6
:10022000F09F202A04DB203A00FA02F100207047F8
:100230009140C2F1200320FA03F319439040704724
:10024000202A04DB203A21FA02F00021704721FA2B
:1002500002F3D040C2F12002914008431946704792
:10026000064C074D06E0E06840F0010394E8070003
:1002700098471034AC42F6D3FFF78AFF7461000848
:100280009461000870B58C1810F8015B15F0070335
:1002900001D110F8013B2A1106D110F8012B03E01F
:1002A00010F8016B01F8016B5B1EF9D12B0705D427
:1002B0000023521E0DD401F8013BFAE710F8013B70
:1002C000CB1A921C03E013F8015B01F8015B521E8C
:1002D000F9D5A142D8D3002070BD00000D4810B55B
:1002E000016811F0040F09D0016821F00C010160D0
:1002F00004F0FCFBBDE8104004F02CBFD0F8001265
:1003000021F00C01C0F8001204F0F0FBBDE8104031
:1003100004F020BF0020014010B4024608460FFA46
:1003200081FC1CFB0CF40B1413FB03411488644385
:100330008C4224BF10BC704792F8B240C4EB1161EC
:10034000C9B202EB41018A8810BC0CFB02F14FEAF2
:10035000E17C01EB5C41C91361F30F0003FB02F187
:10036000CA1701EB5241C91361F31F4070470000E7
:100370002DE9F041054690F830101A4C002204F0A7
:100380005DFFE61306FA80F14FF4700797FAA7F2C3
:100390007001B2FA82F2D04004EB800082686FF301
:1003A0000F1211438160606840F00100606095F8B1
:1003B00031100022284604F041FF06FA80F197FA36
:1003C000A7F2F001B2FA82F2D04004EB800082681A
:1003D0006FF30F1211438160606840F002006060AB
:1003E000BDE8F08100740040084490F83000704788
:1003F00000EB4100B0F9320070470000044801688A
:1004000041F001010160016841F4803101607047F1
:1004100000740040084480F83020704700EB410031
:1004200042867047002190B1437801780022194438
:10043000002B09D900EB020C521C9CF802C0D2B26E
:10044000614489B29342F5D801EB1120C1B208464C
:100450007047002141820175417580F8961080F83F
:10046000971080F8981080F8991080F89A1080F80A
:100470001B1180F81C1180F81D117047DDF800C0B9
:10048000002818BF80E80E107047000000EB400104
:1004900001EB001210B5084901EB420494F8241056
:1004A000002918BF10BD054951F8200003F0A0FF36
:1004B000E083208210BD000090070020D8050020B6
:1004C00010B5044600EB440000EB04121248002172
:1004D00000EB4202114811605160D1601161D1837B
:1004E000C2F81610C2F81A10118450F8240002F055
:1004F0005EFF0B48002150F8240002F058FF094825
:1005000050F8240003F0A2FF074850F82400BDE88B
:10051000104003F0D7B8000090070020E00500204D
:10052000E4050020D8050020F0050020704770B5D4
:100530000D460446B0F99A1090F84930C26A00207E
:10054000002B53D0926AB4F8B0309A4224BFE081B5
:10055000288045D2E1810A0041D0A1F5FE43FF3B4E
:1005600008BFB4F8B2003AD094F8C720012A08BFF7
:10057000A4F8AE000ED0B4F8AA20A4F8AC20A3884A
:10058000D21A12B2A4F8A820B4F8C43092FBF3F245
:10059000A4F8AE2094F8A320012A14D194F84D3089
:1005A00094F82620934238BFA4F8A41009D3D4F8B5
:1005B0009C1091FBF2F2D4F8B41091FBF2F1A4F884
:1005C000A41084F8A300B4F9A400618B00EB8000B0
:1005D000400048436278E169514390FBF1F0288084
:1005E0002946204603F0D4FE014604E0E27822705A
:1005F000E081002128802888A081084670BDB0F9DC
:100600000E10B0F90420A1F5FE43FF3B11D0B0F865
:10061000AA300B44A0F8AA30B0F8AC300B44A0F8D4
:10062000AC30B0F8AE300B441A448280A0F8A01071
:1006300003E0B0F8A01011448180B0F904007047C5
:10064000C26AD16821F00201D160002180F84A100D
:1006500080F84B10012380F84930418280F84C101B
:1006600080F84D1080F84E10A0F8AE1080F8A2303F
:1006700080F8981080F8A3100170B0F8B030936241
:100680005162116841F001011160D16841F002012D
:10069000D16000F09FB8000070B4C38A4278B0F80F
:1006A00014C053430CFB02F292B24FF6FF7C0CEAEB
:1006B0004202D0F828C01B04C16A4FEA1C449B0CBC
:1006C000A0F8C24008BF962306D003EB43035B00AB
:1006D00042F21075B5FBF3F3A0F8C0309BB2634350
:1006E0004FF47A7493FBF4F3A0F8B0301B04C0F815
:1006F000B830354BA0F8B220A3FB0CC3B0F81AC039
:100700009B08B3FBFCF403EB83035B00B3FBF2F247
:10071000C5696C43C0F8B440C0F8BC2090F8C6204E
:10072000838C0CFB02F2B2FBF3F2521EA0F8C42041
:10073000012280F8492090F8482001F1180C130597
:10074000224A127862441468DFF884C0F0269CF8CC
:1007500000509CF800C006FA05F51B0CAC4303FAE8
:100760000CF323431360B0F8B0208A624A6942F068
:1007700001024A6100220A610B6843F004030B6026
:10078000CB6843F00203CB60CB6843F00103CB603E
:100790004A620A6A42F001020A620A6842F00102F1
:1007A0000A6090F826200021002A9CBF70BC704788
:1007B00000EB810C491CD0F8B830C9B2CCF85030ED
:1007C0008A42F5D870BC7047ABAAAAAA506100084B
:1007D0005761000870B4D0E90C31D0E90F4290F8AD
:1007E0002060D0F844C0856BA6B12D69AC430CBF26
:1007F0000124002484F001041269A4003CEA0202EE
:100800000CBF0122002244EA42021B69994316D020
:10081000002115E012693CEA020214BF0022012205
:100820009200D5F810C034EA0C0C0CBF4FF0010C4C
:100830004FF0000C42EA4C021B699943E8D10121B8
:10084000114380F8A610C9B2072926D2DFE801F0CB
:10085000250A151020041B00418C41F25552114409
:1008600081801DE0418C43F6FF721144818017E0C6
:10087000418C46F6AA22114403E0418CA1F5D441F3
:10088000AA3981800CE0418CA1F57C51FF39F8E751
:10089000418CA1F5A8515539F3E7002180F84910A2
:1008A0008188A0F8AA1070BC704700002DE9F007FD
:1008B00090F84910C26A002900F0668190F8A610ED
:1008C00090F9A25090F82030EBB1D0E90E73D0E946
:1008D0001046D0E90C8C3F69BB430CBF01230023B9
:1008E00083F0010324699B0036EA04040CBF012451
:1008F000002443EA4403D8F810403CEA040C1CD01E
:100900004FF0000C1BE0D0E91084D0E90E37D0E99D
:100910000C6CD8F8108034EA080414BF00240124B9
:10092000A4001B6937EA03030CBF0123002344EA38
:10093000430334693CEA040CE2D14FF0010C43EA72
:100940000C0380F8A63003F0FF094FF0FF34660C6B
:10095000012342F6AA2745F255584FF0000CB9F191
:10096000070F67D2DFE809F0661331225504420011
:10097000042908BF80F8A2305AD001295CD180F840
:10098000A240418C01EB0701A0F8AA1054E0052910
:1009900002D0032905D04FE080F8A230418C3944C1
:1009A000F2E780F8A240418C4144EDE7012902D0F2
:1009B000022905D040E080F8A230418C4144E3E7B1
:1009C00080F8A240418C3144DEE7032902D0062999
:1009D00005D031E080F8A230418C3144D4E780F872
:1009E000A240418CA1F5AA415539CDE7022902D098
:1009F000042907D020E080F8A230418CA1F5AA415B
:100A00005539C1E780F8A240418CA1F52851AA3997
:100A1000BAE7062905D0052908BF80F8A24007D00B
:100A20000AE080F8A230418CA1F52851AA39ABE741
:100A3000418CA9E780F849C090F9A210A94205D0DD
:100A400080F84DC080F898C080F8A33090F8C710A7
:100A5000012904BFB0F8AA10818090F84C1001B3AE
:100A600090F84D1090F82640A14204D290F84D1015
:100A7000491C80F84D10516B8CB2916A90F84E5021
:100A800089B290F84E7004EB0545E7B1491C89B274
:100A900090F84B406943002C18BF80F84BC007D03A
:100AA00027E090F84C10491C80F84C10506B6BE01C
:100AB000946AB0F8B050AC421BD2946A641C946241
:100AC00080F84B3015E090F84A702FB1891C89B23C
:100AD000694380F84AC00CE0491C89B26943B4F507
:100AE000AA4F06D2946A24B1946A641E946280F874
:100AF0004A30D0F8BC208A4284BFA0F89A6080F8BF
:100B0000A3C03FD890F89840D0F89C2000EB840414
:100B1000246D121BC0F89C20D0F8B820914208D355
:100B200090F9A240624390F8984000EB840422655B
:100B300011E090F8982000EB8202116590F898205F
:100B400090F9A24000EB82024C431465D0F89C203F
:100B50002244C0F89C20D0F8B420B2FBF1F190F907
:100B6000A2205143A0F89A1090F89810491CC9B2DD
:100B700080F8981090F82620914208BF80F898C01D
:100B800080F8A33080F84EC0BDE8F0070020704721
:100B900070B50446C16A90F8490000283BD094F82B
:100BA0004E00401C84F84E00886A4FF47A71401C55
:100BB0004843B4F8C010B4F8C2205143B1FBF0F080
:100BC00094F84E1080B2814225D30025E58120465D
:100BD000FFF700FE84F84E5084F84C5094F826102D
:100BE000002000290BD900BF04EB8002D4F8B81014
:100BF0001165401C94F82610C0B28142F4D884F8E4
:100C00004D50A4F89A5084F89850D4F8B800C9B25E
:100C10004843C4F89C00002070BD000010B490F858
:100C20003C20012A02BF022010BC7047012280F83C
:100C30003C200A680723D0F800C0092A18D9DCF83C
:100C40000C400A3A02EB420203FA02F224EA0202E0
:100C5000CCF80C200B788A680A3B03EB430302FABA
:100C600003F30268D2F80CC043EA0C03D36015E02A
:100C7000DCF8104002EB420203FA02F224EA02021C
:100C8000CCF810200B788A6803EB430302FA03F3D5
:100C90000268D2F810C043EA0C0313610268936B38
:100CA00023F4401393630268936BB1F810C05A4C5D
:100CB00004EB0C5C43EA0C0393630A790B7CD21AB5
:100CC000D21C02EB82021F2393400268D2F838C084
:100CD0002CEA030393630A790B7CD21A0B88D21C8B
:100CE00002EB82029BB293400268D2F838C043EA1A
:100CF0000C0393638A696FF47023DA420268936885
:100D000023F4702393600268936808BF23F44013B0
:100D10000FD0D1F818C043EA0C03936002689368BF
:100D200023F44013936002689368D1F81CC043EA2F
:100D30000C0393604A7D002A0268536814BF43F491
:100D4000806323F4806353600A7D002A026853683D
:100D500014BF43F4805323F4805353604A68012A3C
:100D60001BD0022A26D0032A026830D0136A6FF300
:100D70000B0313620268136AD1F80CC043EA0C0338
:100D80001362274BD0F800C0244A9C4504BFD1F819
:100D900000C0BCF1120F2CD125E0026853696FF33B
:100DA0000B03536102685369D1F80CC043EA0C038A
:100DB0005361E6E7026893696FF30B03936102687E
:100DC0009369D1F80CC043EA0C039361D9E7D36966
:100DD0006FF30B03D3610268D369D1F80CC043EA07
:100DE0000C03D361CDE7D2F804C04CF4800CC2F8F8
:100DF00004C0D0F800C09C4508D10968102918BF6C
:100E0000112903D1516841F400015160002180F89B
:100E10003C1010BC084670470000F0FF0023014062
:100E20000020014030B482B04FF0000CCDF804C077
:100E300090F83C20012A01BF022002B030BC70476C
:100E4000012280F83C200A6807230468092A14D983
:100E5000E5680A3A02EB420203FA02F225EA0202CC
:100E6000E2600B788A680A3B03EB430302FA03F360
:100E70000268D4682343D36011E0256902EB420283
:100E800003FA02F225EA020222610B788A6803EB78
:100E9000430302FA03F302681469234313614A68A7
:100EA0001F23072A16D20468656B521E02EB8202CA
:100EB00003FA02F225EA020262630B790A885B1EDA
:100EC00092B203EB830302FA03F30268546B2343E9
:100ED00053632DE004680D2A15D2256BD21F02EB57
:100EE000820203FA02F225EA020222630B790A88DF
:100EF000DB1F92B203EB830302FA03F30268146B65
:100F00002343136314E0E56A0D3A02EB820203FA0D
:100F100002F225EA0202E2620B790A880D3B92B2E4
:100F200003EB830302FA03F30268D46A2343D36218
:100F3000254B0468234A9C4204BF0C68122C03D141
:100F4000546844F48004546004689C422FD10B68B8
:100F5000102B18BF112B2AD1536843F400035360A0
:100F60000968102923D11949194A0968B1FBF2F11E
:100F700001EB810149000191009118D0B1F1004FBE
:100F80001BD20029D8BF002105DD11F0010102D0DC
:100F9000019A521E0192009A491C521C914206DA93
:100FA000019B891C5B1E5B1E01939142F8DB80F85C
:100FB0003CC002B0002030BC70470199491E01912D
:100FC000FCD1F4E700230140002001402806002066
:100FD00040420F0070B504004FF0000504BF01202F
:100FE00070BD206C002628B9204600F0ADF866647C
:100FF00084F83C60206C10F0100F18BF012503D05E
:1010000084F83C60284670BD206C20F4885040F085
:10101000020020644948416821F440314160416840
:101020006268114341602068416821F48071416029
:1010300020684168226941EA0221416020684168D4
:1010400021F04071416020684168A268114341600D
:101050002068816821F40061816020688168E2680D
:1010600011438160A06A6FF07061C8422068816896
:1010700021F0706181602068816808BF21F04051D3
:101080000BD0A26A114381602068816821F0405131
:10109000816020688168E26A11438160206881680C
:1010A00021F00201816020688168227E41EA4201CC
:1010B000816094F8200000282068416808BF21F46E
:1010C00000610ED041F4006141602068416821F464
:1010D0006041416020684168194B626A03EB42320B
:1010E000114341602068C16A21F47001C162206827
:1010F000C16AA28B134B03EB02521143C1622068F9
:10110000816821F4007181602068816894F8302042
:1011100041EA422181602068816821F48061816018
:1011200020688168626941EA822181606664206C7E
:1011300020F0020040F00100206461E7002301403C
:1011400000E0FFFF0000F0FF2DE9F04186B0002530
:1011500000950195029503950495D0F800C0334998
:10116000334A10200324334BC026334FACF1804860
:10117000B8F5903830D0DFF8C480C4451CBF06B045
:10118000BDE8F081D1F800C04CF4007CC1F800C08B
:10119000096801F400710591116841F004011160C2
:1011A000116801F004010591116841F0010111601D
:1011B000116801F001010591CDE900046946184666
:1011C00000F0ACF8009669463846CDE9014500F0DC
:1011D000A5F806B0BDE8F081D1F800C04CF4807CE1
:1011E000C1F800C0096801F480710591116841F0EF
:1011F00004011160116801F004010591116841F0CA
:1012000001011160116801F001010591CDE90004AF
:101210006946184600F082F8009669463846CDE9DE
:10122000014500F07BF806B0BDE8F081443802408B
:101230003038024000080240000002400021014016
:101240004379012B04BF0220704730B44FF0010CEA
:1012500080F805C00223037103681C6840F6FE7520
:101260009540AC43D1E90051294391402143196095
:1012700001680B68C02404FA02F223EA02020A6041
:1012800080F804C00021417130BC08467047002836
:1012900004BF0120704770B504460079002518B9D5
:1012A0006571204600F008F80220207125610120B8
:1012B0002071002070BD000000B587B000210091B2
:1012C00001910291039104910068A0F18041B1F570
:1012D000E8411CBF07B000BD0D48016841F0005156
:1012E0000160006800F0005005900A48016841F074
:1012F000010101600068694600F00100059030209E
:10130000009003200190044800F008F807B000BDE9
:101310004038024030380240000002402DE9F84FCA
:1013200000220127874D03264FF00F080B6807FAAC
:1013300002FC03EA0C03634540F0FD804C68012C7D
:1013400018BF022C03D0112C18BF122C18D1D0F8C2
:101350000890540006FA04FA29EA0A09D1F80CA008
:101360000AFA04F444EA09048460446824EA0C0C90
:101370000C79C4F30014944044EA0C0CC0F804C087
:10138000D0F80C904FEA420CD1F808A006FA0CF401
:1013900029EA04090AFA0CFA4AEA0909C0F80C9089
:1013A000D1F80490B9F1020F18BFB9F1120F15D19D
:1013B0004FEAD20900EB890ADAF820B04FEA427905
:1013C0004FEAD96908FA09FE2BEA0E0BD1F810E0B2
:1013D0000EFA09F949EA0B09CAF82090D0F80090F2
:1013E00029EA040491F8049009F0030909FA0CFCB5
:1013F0004CEA040CC0F800C0D1F804C01CF0805FB7
:101400007DD0D5F800C04CF4804CC5F800C0D5F8AC
:1014100000C00CF4804CCDF800C022F0030C0CF19D
:10142000804404F59834D4F808984FEA827C4FEA57
:101430001C7C08FA0CFA29EA0A09A0F1804ABAF5DC
:10144000003A38D0A0F1804ABAF5013A08BF4FF00F
:10145000010A30D0A0F1804ABAF5023A08BF4FF035
:10146000020A28D0A0F1804ABAF5033A08BF4FF02B
:10147000030A20D0A0F1804ABAF5043A08BF4FF021
:10148000040A18D0A0F1804ABAF5053A08BF4FF017
:10149000050A10D0A0F1804ABAF5063A08BF4FF00D
:1014A000060A08D0A0F1804ABAF5073A0CBF4FF0FF
:1014B000070A4FF0080A0AFA0CFC4CEA090CC4F8B7
:1014C00008C8214CD4F800C0D1F804902CEA030CD1
:1014D00019F4803F18BF4CEA030CC4F800C01B4C41
:1014E000D4F800C0D1F804902CEA030C19F4003FA2
:1014F00018BF4CEA030CC4F800C0154C00E01AE019
:10150000D4F800C0D1F804902CEA030C19F4801F21
:1015100018BF4CEA030CC4F800C00E4CD4F800C04D
:10152000D1F804902CEA030C19F4001F18BF4CEA00
:10153000030CC4F800C0521C102AFFF4F7AEBDE83B
:10154000F88F000044380240003C0140043C014058
:10155000083C01400C3C0140014880687047000095
:101560001C0600200248816802781144816070479F
:101570001C0600200B4810B5016841F400710160A1
:10158000016841F480610160016841F4807101608B
:10159000032000F087F8042000F006F800F024F89B
:1015A000002010BD003C024070B50D4D04464FF4C4
:1015B0007A712878B1FBF0F00A490968B1FBF0F0C4
:1015C00000F08CFB48B9102C07D200222146501E97
:1015D00000F036F800206C6070BD012070BD000086
:1015E0001C060020280600200B4882B0016841F448
:1015F00080410160006800F4804000900748016865
:1016000041F080510160006800F08050009004209B
:1016100002B000F047B800004438024040380240B1
:101620000028B8BF704700F01F01012202FA01F143
:101630004009800000F1E020C0F800117047000070
:10164000174B10B41B68C3F30223C3F1070CBCF1A2
:10165000040F88BF4FF0040C1C1D072C34BF00235F
:10166000DB1E012404FA0CFCACF1010C0CEA0101B4
:10167000994004FA03F35B1E1A40114300284FEA15
:101680000111A1BF00F1E02080F8001410BC7047E8
:1016900000F00F0000F1E02080F8141D10BC70472E
:1016A0000CED00E0074900F007000A684FF6FF0361
:1016B0001A4042EA002040F0FD7040F0806008606F
:1016C000704700000CED00E0002804BF01207047C7
:1016D0002DE9F0474D4E04460F46306801F0FF08F3
:1016E00000F00F00B84206D286F80080306800F0A3
:1016F0000F00B84261D12068454D10F0020F14D0A0
:1017000010F0040F03D0286840F4E05028602078DF
:1017100010F0080F03D0286840F460402860286863
:10172000A16820F0F00008432860207810F0010F35
:1017300037D060683749012823D0022818BF032812
:10174000096823D011F0020F37D0296821F0030176
:1017500008432860FFF700FF81462868616800F0B1
:101760000C00B0EB810F18BF41F2883A19D000BFCE
:10177000FFF7F2FEA0EB090050450BD90320BDE8AE
:10178000F087096811F4003FDFD116E011F0007F07
:10179000DBD112E02868616800F00C00B0EB810F2B
:1017A000E6D1306800F00F00B84209D986F8008011
:1017B000306800F00F00B84202D00120BDE8F08789
:1017C000207810F0040F05D02868E16820F4E0507C
:1017D00008432860207810F0080F06D02868216997
:1017E00020F4604040EAC100286000F047F8296812
:1017F000094AC1F30311515CC84008490860084810
:101800000068FFF7D1FE0020BDE8F087003C0240F1
:1018100008380240003802403861000828060020DD
:101820002006002001490120C8647047000047429B
:101830000148006870470000280600200448054958
:1018400000680968044AC1F38221515CC8407047AE
:10185000280600200838024048610008044805496D
:1018600000680968044AC1F34231515CC8407047BE
:10187000280600200838024048610008184800681F
:1018800010F00C02174808BF70471749042A04BF1C
:1018900008467047082A18BF704710B5134C2268D5
:1018A000236802F03F0213F4800F08D02068002361
:1018B000C0F38810A0FB0101FEF782FC07E021685D
:1018C0000023C1F38811A1FB0001FEF779FC216818
:1018D000C1F30141491C4900B0FBF1F010BD00000B
:1018E000083802400024F40000127A000438024054
:1018F000002804BF012070472DE9F84F0446007806
:10190000EB4D10F0010F57D0EA48016801F00C01CF
:10191000042909D0006800F00C0008280DD1281D0A
:10192000006810F4800F08D0286810F4003F43D0FE
:101930006068002800F0B6813EE06068B0F5803F46
:1019400019D0B0F5A02F28680CBF40F4802020F4F7
:101950008030286028680CBF40F4803020F480205C
:1019600028606068B8B1FFF7F7FD0646286810F4F4
:10197000003F05D020E0286840F480302860F0E780
:10198000FFF7EAFD801B642800F22D81286810F41F
:10199000003FF5D010E0FFF7DFFD0646286810F4A1
:1019A000003F09D0FFF7D8FD801B642800F21B819F
:1019B000286810F4003FF5D12078BF4F10F0020FD7
:1019C0004FF0000847D0BB49086810F00C0F15D045
:1019D000086800F00C00082804D1081F006810F403
:1019E000800F0BD0E06818B301203860FFF7B4FD1A
:1019F0000646286810F0020F09D011E0286810F0A0
:101A0000020F1CBFE06801280AD000F04BB9FFF7B5
:101A1000A3FD801B02287DD8286810F0020FF6D0A5
:101A20002868216920F0F80040EAC100286012E02F
:101A3000C7F80080FFF790FD0646286810F0020FF7
:101A400009D000BFFFF788FD801B022862D82868F4
:101A500010F0020FF6D1207810F0080F2ED0974822
:101A6000DFF85C926169A1B101210160FFF774FDAB
:101A70000646D9F8000010F0020F1FD1FFF76CFDE9
:101A8000801B022846D8D9F8000010F0020FF5D0CC
:101A900014E0C0F80080FFF75FFD0646D9F80000AB
:101AA00010F0020F0AD000BFFFF756FD801B02287E
:101AB00030D8D9F8000010F0020FF5D1207810F0DE
:101AC000040F77D07F484FF0000B006810F0805F64
:101AD0000AD17C48016841F08051016000684FF0F4
:101AE000010B00F080500090774E306810F4807F3A
:101AF00016D1306840F480703060FFF72DFD8146CC
:101B0000306810F4807F0BD1FFF726FDA0EB0900B1
:101B1000022800E067E066D8306810F4807FF3D0D8
:101B2000A0686A4E01281BD0052830680CBF40F021
:101B3000040020F00100306030680CBF40F001006C
:101B400020F00400C6F80000A06841F2883AB8B15D
:101B5000FFF702FD8146306810F0020F05D021E04A
:101B6000306840F001003060EEE7FFF7F5FCA0EBD5
:101B70000900504537D8306810F0020FF5D011E059
:101B8000FFF7EAFC8146306810F0020F0AD000BF70
:101B9000FFF7E2FCA0EB0900504524D8306810F0B4
:101BA000020FF5D1BBF1000F04D04648016821F0C7
:101BB00080510160A069E8B33E490A6802F00C0256
:101BC000082A50D00228C7F860800FD0FFF7C4FC65
:101BD0000446286810F0007F67D000BFFFF7BCFC08
:101BE000001B02283AD90320BDE8F88FFFF7B4FCA8
:101BF0000646286810F0007F09D000BFFFF7ACFC54
:101C0000801B0228EFD8286810F0007FF6D1D4E9B5
:101C100007010843A16A2E4A490802EB0141626AA2
:101C200041EA8211084394F82C1040EA01612948E6
:101C3000016000E039E001203866FFF78DFC0446C2
:101C4000286810F0007F30D1FFF786FC001B0228C7
:101C5000C9D8286810F0007FF6D026E0286810F078
:101C6000007FBBD121E0012808BFBDE8F88F0868DC
:101C7000E26900F48001914214D1226A00F03F0130
:101C800091420FD147F6C071626A0140914209D179
:101C9000A26A00F44031914204D1E16A00F0706020
:101CA000884202D00120BDE8F88F0020BDE8F88FFF
:101CB000003802400838024000004742800E474288
:101CC00074380240403802400070004070380240D2
:101CD0000000FFFF0438024070470000411EB1F1D0
:101CE000807F24BF012070474FF0E0204161054A0A
:101CF000F02182F8141D002181610721016100207B
:101D0000704700000FE000E010B5FFF7E5FF10BDE1
:101D100090F83C20012A04BF02207047012280F87D
:101D20003C20CA688B6822F440721A434B6822F444
:101D300080621A430B6822F400621A430B6922F492
:101D400080521A434B6922F400521A43C96922F4A3
:101D50008042114302685164002180F83C1008461B
:101D60007047002804BF0120704770B5044690F802
:101D70003D0088B00E46002520B984F83C5020462E
:101D800000F04DF8022084F83D00211D206802F08B
:101D900041FDB36831680322206802F046FE2068E6
:101DA000816921F00C0181612068816972681143A9
:101DB00081612068416841F080014160206881684C
:101DC00021F0700181602068816841F040018160EC
:101DD0002068816821F0070181602068816841F0F6
:101DE0000401816070200595049506950395029580
:101DF0000090F06801906946206802F06FFD20684D
:101E0000416821F0700141602068416841F0500153
:101E10004160012084F83D0008B0002070BD70478B
:101E200090F83C20012A04BF0220704730B40123FF
:101E300080F83C30022280F83D2002685468D2F8D5
:101E400008C00D6824F070042C4354600268A2F1AD
:101E50008044B4F5803418BFB2F1804F1DD0A2F198
:101E60008044B4F580641CBFA2F18044B4F50064E2
:101E700013D0A2F18044B4F540641CBFA2F18044A9
:101E8000B4F5823409D0A2F18044B4F5A0341CBF6B
:101E9000A2F18044B4F5C05405D149682CF0800CFF
:101EA00041EA0C01916080F83D30002180F83C103F
:101EB00030BC08467047002804BF0120704710B5A9
:101EC000044690F83D0028B9002084F83C002046E4
:101ED00000F00CF8022084F83D00211D206802F07B
:101EE00099FC012084F83D00002010BD00B587B0AA
:101EF0000021009101910291039104910068A0F1E9
:101F00008041B1F5803123D011F57C411CBF07B071
:101F100000BD1548016841F002010160006800F051
:101F2000020005901148016841F004010160006859
:101F3000694600F0040005904FF4E0700090022024
:101F40000190039004900A48FFF7E8F907B000BD3C
:101F50000848016841F001010160006800F00100DB
:101F6000059007B000BD0000403802403038024004
:101F7000000802404438024090F83C20012A0DBF7E
:101F80000220012380F83C30704730B4022280F8F0
:101F90003D20D0F800C0DCF8082022F0770222F4BF
:101FA0007F42CCF808200A68502A3DD00CDC202A59
:101FB00074D004DC002A18BF102A51D18CE0302ADA
:101FC0006CD0402A6CD091E0602A4AD0702A06D0AA
:101FD000B2F5805F44D0B2F5005F12D086E0D1E95F
:101FE000014C0268C968956844EA012125F47F45DF
:101FF00041EA0C012943916001688A6842F0770246
:1020000010E00268D1F804C08C68C96895684CEA91
:10201000012125F47F4521432943916001688A68A5
:1020200042F480428A6061E00268D1F804C0C96865
:10203000146A156A25F001051562956924F00A04F1
:1020400025F0F00545EA011144EA0C0C9161C2F853
:1020500020C001688A6822F0700242F057028A604C
:1020600044E00268D1F804C0C968146A24F010047E
:1020700014629569146A25F4704545EA013124F02B
:10208000A00444EA0C1C9161C2F820C001688A686F
:1020900022F0700242F067028A6027E01CE0FFE74E
:1020A0000268D1F804C0CC68116A156A25F00105F0
:1020B0001562956921F00A0125F0F00545EA04143E
:1020C00041EA0C019461116201688A6822F0700291
:1020D00042F047028A6009E00168D1F808C02CF09C
:1020E000700C4CEA020242F007028A6080F83D3030
:1020F000002180F83C1030BC0846704730B587B0EE
:102100000021009101910291039104910068A0F1D6
:102110008041B1F580311CBF07B030BD1548016862
:1021200041F001010160016801F0010105910168C0
:1021300041F0020101600068022400F002000590F5
:102140004FF4E060CDE900040125029469460A4895
:10215000CDE90345FFF7E2F84FF46040CDE9000414
:10216000029469460548CDE90345FFF7D7F807B063
:1021700030BD000030380240000002400004024040
:1021800090F83C30012B04BF022070472DE9F0018C
:10219000012480F83C40022380F83D30894BDFF871
:1021A00028C242B1042A48D0082A7CD00C2A00F068
:1021B000CC8000F0FDB80268156A25F001051562B3
:1021C000156A56689769D1F8008027F0730748EAC6
:1021D0000707D1F8088025F0020548EA05059A426C
:1021E00018BF624507D1D1F80C8025F0080548EAF0
:1021F000050525F004059A4218BF624509D1D1F8BA
:1022000014C026F440734CEA0303D1F818C04CEA1A
:102210000306566097614B685363156202689369C1
:1022200043F0080393610268936923F00403936108
:10223000026893690969194343E00268156A25F049
:1022400010051562156A56689769D1F8008027F461
:10225000E64747EA0827D1F8088025F0200545EA37
:1022600008159A4218BF624507D1D1F80C8025F0B5
:10227000800545EA081525F040059A4218BF6245D9
:1022800009D1D1F814C026F4406343EA8C03D1F895
:1022900018C043EA8C06566097614B6893631562D9
:1022A0000268936900E00EE043F400639361026802
:1022B000936923F48063936102689369096943EA2F
:1022C0000121916174E00268156A25F48075156238
:1022D000166A5568D769D1F8008027F0730748EA75
:1022E0000707D1F8088026F4007646EA08269A42C5
:1022F00018BF624507D1D1F80C8026F4006646EA83
:10230000082626F480669A4218BF624509D1D1F8A2
:1023100014C025F4405343EA0C13D1F818C043EA23
:102320000C155560D7614B68D36316620268D36998
:1023300043F00803D3610268D36923F00403D36137
:102340000268D3690969194331E00268156A25F406
:1023500080551562176A5568D669D1F8008026F451
:10236000E64646EA0826D1F8088027F4005747EAEF
:1023700008379A4218BF624505D1D1F814C025F438
:10238000804343EA8C155560D6614B68136417622D
:102390000268D36943F40063D3610268D36923F40C
:1023A0008063D3610268D369096943EA0121D1617D
:1023B00080F83D40002180F83C10BDE8F00108465F
:1023C000704700000000014000040140002804BFE5
:1023D0000120704710B5044690F83D0028B9002050
:1023E00084F83C00204600F00CF8022084F83D0000
:1023F000211D206802F00EFA012084F83D00002023
:1024000010BD704770B5044690F83C00012804BF29
:10241000022070BD012584F83C50022084F83D0064
:10242000204602F093FA01004FF0000005D084F836
:102430003D5084F83C00012070BD2168CA6822F03C
:102440004002CA602168CA6822F48042CA6084F8E7
:102450003D5084F83C00002070BD002804BF0120DE
:10246000704770B5044690F83900002520B984F80B
:102470003850204600F022F8242084F839002068E3
:10248000C16821F40051C160204602F0ADFC206813
:10249000016921F4904101612068416921F02A011C
:1024A00041612068C16841F40051C160E5632020AA
:1024B00084F8390084F83A00002070BD00B587B078
:1024C0000021009101910291039104910068A0F113
:1024D0008041B1F588311CBF07B000BD0E480168CE
:1024E00041F010010160006800F0100005900B48F9
:1024F000016841F0020101600068694600F00200D5
:102500000590C0200090022001900720049004480C
:10251000FEF704FF07B000BD4438024030380240E7
:102520000004024082B002F0D1FA184CD4F8200125
:10253000006810F0080F0AD0144802F025FDD4F806
:102540002001016800914068009003F087F8D4F8FA
:102550002001006810F0800F1CBF0C4802F0BDFD88
:10256000D4F82001016811F0200FDFD04068C1B21B
:10257000064802F013FD0088012804D0022808BF95
:1025800003F06CF8D2E703F063F8CFE79004002083
:10259000012908BF002115D0042908BF012111D04D
:1025A000102908BF02210DD0402908BF032109D0FE
:1025B000B1F5807F08BF042104D0B1F5806F0CBF56
:1025C00005210621084B18305B5C1844D0F800C088
:1025D000064B595C73238B402CEA030302FA01F18A
:1025E00019430160704700005E61000865610008E2
:1025F00010B50446406801F082FFA168086110BD73
:102600000068012101F0E3BF002808BF704710B542
:102610000446007E012818BF10BD217B002001293F
:1026200004D0022910D003291ED026E0A16881F829
:1026300024000121606801F090FFE28AB4F90E10D5
:10264000606801F00BFF0CE0A16881F82400002114
:10265000606801F082FFE28AB4F91010606801F04E
:10266000FDFE50B1022009E0A168012081F824009C
:10267000A068D4F812100161F4E70320207610BDA1
:1026800001230373C181C28203764376704702231C
:1026900003730182C28201210176002141767047D5
:1026A000006801F062BF10B5406801F03EFFBDE870
:1026B000104001F05ABE407E704780680068704745
:1026C0008068406870478068C068704780680069AB
:1026D0007047027B0021012A08BFB0F90E1008469E
:1026E0007047406801F015BF006801F069BF80685D
:1026F000B0F91E0070478068D0F81A0070478068F3
:10270000D0F8160070478360C0E900120021017301
:10271000C1810182C1820176704703220273418226
:102720000914818201210176002141767047826877
:10273000518280688182704710B504460068032189
:1027400001F045FF00281CBF0121217610BD006863
:10275000072101F03CBF406801F003BF014661F36F
:102760000F0044F6E61211FB02F244F6E61311FBE9
:1027700023F10A4411444942C913B1F5004FA8BFDF
:1027800047F6FF7104DA11F5004FB4BF054909B2ED
:1027900061F31F4011F5004F04BF48F2010161F3DE
:1027A0001F4070470080FFFF70B50546084600F0E7
:1027B00059F82AB203B212FB03F14FEA254C051473
:1027C0001CFB05F0081AC0131649B0F5004FA8BF4E
:1027D00047F6FF7004DA10F5004FB4BF084600B2A8
:1027E00060F30F04104E10F5004F08BF66F30F049E
:1027F00012FB05F01CFB03F21044C013B0F5004FB0
:10280000A8BF47F6FF7103DA10F5004FA8BF01B269
:10281000204661F31F4011F5004F08BF66F31F40CB
:1028200070BD00000080FFFF0180FFFF10B504466F
:10283000084600F017F814FB00F12214031412FBF1
:1028400003FC61444FEAE13C29466CF30F0114FBA1
:1028500003F312FB00F0C01AC01360F31F410846D7
:1028600010BD000000F50041890911F4407C00F51D
:102870000041C1F387121749C2F1FF0319D0BCF51B
:10288000807F1FD0BCF5007F0AD0BCF5407F18BF09
:10289000704731F8133031F8121063F31F400FE026
:1028A00031F8122031F8131062F31F4061F30F006A
:1028B000704731F8122031F81310524262F31F4072
:1028C0004942F3E731F8133031F812105B4263F3F9
:1028D0001F40EBE7A25E0008F8B58C460446DDE930
:1028E0000710069FC4F830C0C4E9300108481E46EE
:1028F00015460090074B084A21466046FDF7BEFD8D
:10290000E763C4E90D56204600F094FBF8BD0000D3
:102910001D290008252900082D30000810B500F0F9
:1029200089FB10BD2DE9F04105468CB0002098468A
:1029300014460E468DF804004F0914D07A1E00216B
:10294000284602F0A3FE002804BF0B208DF82800C3
:1029500000F05783D5F8C40006F01F0618B17A1EA0
:10296000002102F093FE132E80F04983DFE806F089
:10297000C00AAEBFBEBEBDBCBBBAB9B8B7B6BEBE5C
:10298000BEBEC000267805208DF82800472E6FD0E7
:1029900027DC0F2E7DD00ADC6BD2DFE806F05592E3
:1029A0009263927A7A7A7A7A7A7A7A7A7A00172E97
:1029B0006FD009DCA6F1100007285AD2DFE800F03A
:1029C00072728181696969001D2E5BD004DC182E4A
:1029D0005FD01C2E4ED074E0412E5AD0462E61D0CE
:1029E0006FE0652E55D01EDC572E52D00EDC542ED3
:1029F0004FD006DC482E55D04F2E18BF532E48D04E
:102A00005FE0552E18BF562E5BD142E05B2E49D0B9
:102A100004DC582E18BF592E53D13AE0612E18BF4E
:102A2000642E4ED135E0A6F17400152849D2DFE8B6
:102A300000F019393939393948484839394848484E
:102A40004848484830303000647831462246D5F84E
:102A5000C40002F01BFE22463146284602F016FE54
:102A600000F028BA62783146284602F00FFE21E2D3
:102A700018E026E062780021D5F8C40002F001FEDB
:102A8000012017E262780121D5F8C40002F0F9FDB7
:102A90007EE16078A17800EB01223146284602F001
:102AA000F5FD07E26078A178227900EB0120E1785A
:102AB000090401EB026142183146284602F0E6FDA6
:102AC000F8E102208DF8280000F09BBA217803205D
:102AD0008DF82800892980F094820AE0D7E16EE21F
:102AE00056E244E21CE2E8E1BEE18EE187E282E1E7
:102AF00015E2880078444068874400002402000002
:102B0000BE0200002402000024020000BE020000F9
:102B1000980200009802000098020000980200004D
:102B2000980200009802000098020000980200003D
:102B3000980200009802000098020000980200002D
:102B4000980200009802000098020000980200001D
:102B5000980200009802000098020000980200000D
:102B6000980200009802000098020000480200004D
:102B700074020000BE0200009802000098020000EB
:102B8000980200002402000006050000060500006F
:102B90000605000006050000060500000605000009
:102BA00006050000060500000605000006050000F9
:102BB00006050000060500000605000006050000E9
:102BC00006050000060500000605000006050000D9
:102BD00006050000060500000605000006050000C9
:102BE00006050000060500000605000006050000B9
:102BF00006050000060500000605000006050000A9
:102C00009802000006050000060500000605000009
:102C100006050000BE020000BE020000BE02000069
:102C2000980200009802000098020000980200003C
:102C300024020000BE02000098020000980200007A
:102C4000980200009802000098020000980200001C
:102C5000980200009802000098020000980200000C
:102C60009802000024020000BE02000006050000D9
:102C700098020000980200009802000098020000EC
:102C800098020000060500000605000098020000FA
:102C9000980200002402000024020000BE0200008E
:102CA000BE020000BE020000BE020000BE02000024
:102CB000240200009802000098020000BE020000FA
:102CC000060500009802000098020000240200009F
:102CD000BE020000BE020000BE020000BE020000F4
:102CE000BE020000BE020000BE020000BE020000E4
:102CF000BE020000BE020000BE020000240200006E
:102D00000605000024020000E4020000E4020000C6
:102D1000E4020000980200009802000098020000FF
:102D200001AA284602F08AFA00909DF804000028C3
:102D300000F07081D5E90C0C01236A46F02100F007
:102D40003AB900BFD5F8C400002800F05A8100212C
:102D500002F06AFA8DF80000D5E90C0C01236A46EE
:102D6000F021E04701208DF804000CB0BDE8F081AF
:102D7000D5F8C400002800F04481012102F054FA83
:102D80008DF80000D5E90C0C01236A46F021E047DC
:102D900001208FE001AA284602F050FA00909DF829
:102DA0000400002800F03681D5E90C0C02236A46A5
:102DB000F021E0470CB0BDE8F08101AA284602F0FE
:102DC0003DFA00909DF80400002800F02381D5E929
:102DD0000C0C04236A46F021E0470CB0BDE8F081FA
:102DE00001AA284602F02AFA00909DF80400002863
:102DF000EDD100F00FB9217807208DF82800284682
:102E000002F0B8F98DF80400FBE0002002A90246A8
:102E10000A54401CC0B22028FAD3002005E00B1849
:102E2000401CC0B2DA701D2804D2D5F8C020125C54
:102E3000092AF4D1D5F8C020411D2023515C8DF81A
:102E40000810C11D0930515C8DF80910D5F8C0106B
:102E500002AA085C8DF80A00D5E90C0CF021E047C5
:102E600001208DF80400CFE020796179E37800EB50
:102E7000012082B22078617800EB0120A17809045A
:102E800001EB03610144284602F0ACF912E020791D
:102E90006179E37800EB012082B22078617800EB61
:102EA0000120A178090401EB0361084401B228461E
:102EB00002F0B0F98DF80400A3E005A80090217895
:102EC00006AB04AA284602F06FFBBDF9180054496E
:102ED000C0EB0010800081FB00108110A1EBE070BE
:102EE0008DF80800010A8DF80910010C8DF80A1000
:102EF000000E8DF80B00BDF814008DF80C00000AD0
:102F00008DF80D00BDF810008DF80E00000A8DF848
:102F10000F00D5E90C0C082302AAF021E04770E06D
:102F2000E079227A237900EB02201FFA80FC607896
:102F3000A278217800EB0220E278120402EB03620F
:102F4000104400EB80004200364B0020C3FB02021D
:102F50005011A0EBE27003B26079A27900EB02207D
:102F600000B200906246284602F036FCA2E72078C4
:102F70006178E27800EB012001B2A07800EB02203A
:102F800002B2284602F070FB01208DF804003BE0FD
:102F90000C208DF8280002948DF80C80224902A89C
:102FA00002F04AF98DF8040058B31F48F021037964
:102FB0000268D5E90C0CE0470CB0BDE8F0810020B8
:102FC00002A904E00A54401CC0B220280DD2D5F852
:102FD000C020125C002AF5D1202838BF002204D27C
:102FE0000A54401CC0B22028FAD3D5E90C0C202387
:102FF0000A46F021E04701208DF8040004E001209A
:1030000060E59DF8040028B10023D5E90C0C1A46B0
:10301000F021D0E7D5E90C0C01230AAAFF21CAE769
:1030200067666666898888880C00002010B500F005
:1030300001F810BD10B50446006BE16B8847802095
:1030400084F8C800A16B206BBDE810400847000061
:1030500006480078002808BF704710B500F008F84F
:1030600001F05AFEBDE8104002F0D2BACC050020B3
:1030700010B50E4C2078012818BF10BD60880028BC
:103080001CBF6088401E02D101F096FD01206080C7
:10309000A08810B1A088401EA080E088002808BF4A
:1030A00010BDE088401EE08010BD0000CC0500206F
:1030B0002DE9F35F524801F085FA524E002406F1E3
:1030C0002C01347050480860A1F108084F48C8F836
:1030D000000000F08FFC02F06FFE4D4800F05DF93B
:1030E00006F1100B4A48CBF8000006F10C054948E0
:1030F00028604948FDF7D0FADBF80010464A2868F6
:1031000001F01BFA454800F048F9454800F045F940
:1031100005F108094148C9F8000005F10C0A4048CA
:10312000CAF800003F48F06102F005FC05F11C01FF
:103130003D480860F1693D4FC0E943713C4800F0EB
:1031400001F905F114003A49016005F124013948FB
:10315000086001F0D9F80020FDF7B2F9012087F8E6
:103160002400286801F0CBF93861286801F0C7F91C
:103170000014B88207F128002F1FA0F1280338603F
:1031800005F128012A68FFF7BEFA286801F0C7F99F
:103190003B68014600221846FFF772FA009839682A
:1031A00001602548DBF800100160D9F8001041608B
:1031B000DAF80010C0E90214D8F80010C0E90414CD
:1031C0001549C0E9061404622968416205F1280125
:1031D000816214390968C162F169C0E90C1405F112
:1031E0001C0184630968C0E90F1444648464C464E6
:1031F0000465019908600120307002B0BDE8F09FBD
:1032000000060020CC050020DC030020E0010020A7
:1032100028010020AC0100205C02002054010020A5
:10322000800100204C0300201400002090070020A3
:1032300024030020C4030020D4070020B0F800318C
:10324000002220F81310B0F80031A0F802315B1C06
:103250009BB2A0F80031802B24BF0023A0F80031DE
:103260005FF0000330F913C05B1C9BB26244802BFB
:10327000F8D3D31702EB5362D211A0F80421084609
:10328000704700210A4620F81120491C89B2802984
:10329000F9D3A0F80021A0F802217047B0F9040189
:1032A0007047000008B5FEF7C3FA4FF4FA61B0FBAF
:1032B000F1F0FEF713FD0749081FFFF7F9FE02F0D2
:1032C0000BFD044B04481A1F00900121101F02F04F
:1032D0009FFA08BD080000207E5E000810B5044675
:1032E0000078002818BF002012D194F8260000F0C2
:1032F00027FFA0F57F41FF3907D0218B238A4A1E83
:1033000003FB0200B0FBF1F02082204600F02CF815
:10331000E08280B210BD002101827047017800294F
:1033200018BF808A01D000B27047018A026A891AE8
:10333000B0F91E20808C5143CA1701EB124100EBFB
:103340002140F0E710B50446007820B10020E0826B
:10335000608A208210BD201D00F054FF84F82600F2
:103360002046FFF7D8FF10BD018A428B914284BFEF
:1033700008207047828B8A428CBF0020C08A704729
:10338000B0F922007047B0F906007047408B7047D3
:10339000B0F904007047008B704701888180418834
:1033A000C180018C4184002181608162704781600D
:1033B000704741847047C18070478180704700002A
:1033C00070B4B0F90420002402FB01F6B0F9062025
:1033D000B0F914C0B0F91630002A04BF0021816092
:1033E00014D085684A43A91805D5002DC4BF002A0A
:1033F0006FF0004103E0002DBCBF002A0F49C268F6
:103400008A42A5BF0269914282608160827F8168A1
:10341000057F41FA02F246FA05F52A446245C4BF27
:10342000ACEB0204624603DC9342C4BF9C1A1A460A
:103430002144816070BC10B2704700000100008020
:1034400070B5D0F80C110446C868D1F8161010FBFE
:1034500001F210FB3121C81701EB10400514D4F81C
:10346000100102F063FAD4F8081148434FF41671C2
:1034700090FBF1F0684300EB40000849400081FBFD
:1034800000108110A1EBE071C81701EB104001148E
:103490002046BDE87040FFF7D1BE00006766666653
:1034A000C169084770B50446002511B1012908D04B
:1034B00017E000F007F9B4F85200A4F8440080B90E
:1034C0000BE0B4F84400002808BF012509D0401ED5
:1034D0000004000CA4F8440003D121692046884769
:1034E0000125284670BD4268104730B4038E0AB2E9
:1034F00053430A14B0F850104A435200524202EBB0
:10350000030CA2EB03030CEBDC7C03EBD3735FEA4D
:103510006C0C4FEA63034FEA910153D5002B18DA84
:10352000042280F83A20ACEB0302D41702EB943269
:1035300001EBA241DA1703EBD23201EB62434FEA0F
:10354000EC720CEBD232A1EB624CA0F83CC0C1870C
:103550006CE0002A1BDC4FF0030C80F83AC0A2EBB1
:10356000030C4FEAEC740CEB943C01EBAC414FEADA
:10357000E37C03EBDC334FEAE27C01EB634302EBD9
:10358000DC32A3EB624CA0F83CC0C38717E00223F7
:1035900080F83A30ACEB0203DC1703EB943301EB19
:1035A000A3414FEAEC730CEBD333A1EB634CD3177D
:1035B00002EBD3320CEB62438387A0F83EC0A0F845
:1035C000401052E0002B17DB012280F83A20ACEBD0
:1035D0000302D41702EB943201EBA241DA1703EB9A
:1035E000D23201EB62434FEAEC720CEBD2328387AA
:1035F000A1EB624CC18736E0002A1ADC052380F873
:103600003A30ACEB0203DC1703EB943301EBA3413C
:103610004FEAEC730CEBD333A1EB634CD31702EB03
:10362000D33281870CEB6243A0F83EC0A0F8403053
:103630001BE04FF0000C80F83AC0A2EB030C4FEAFD
:10364000EC740CEB943C01EBAC414FEAE37C03EBF4
:10365000DC3301EB63434FEAE27C02EBDC3281872F
:10366000A3EB624CC387A0F840C089B29AB24186EE
:1036700082861FFA8CF3C386B0F84EC0BCF1010FEE
:1036800002D0816930BC0847B0F948C0BCF1000FD6
:10369000B0F854C0CCBF6144A1EB0C014186B0F935
:1036A0004A1000291FFA8CF1CCBF1144511A8186AF
:1036B000B0F94C1000291FFA8CF1CCBF1944591AEB
:1036C000C186DEE781680847816F91F88F20022A62
:1036D0000DD1CA68098B09049161826F1169928BBF
:1036E00012048A61816F4A69098C09049161012180
:1036F00080F87410463070472DE9F0470446806F1B
:1037000000278568E7652766676684F87370286A0E
:1037100020F0550020F4A0602862404961604049D3
:103720000326A16184F87260204684F83A6000F0B4
:103730000AFCA06F04F1730304F1380190F88E20A5
:10374000284602F069FB204600F0D4FB84F8737031
:103750003449616084F87270204684F83A7000F051
:10376000F2FBA06F04F1730304F1380190F88E208E
:10377000284602F051FB204600F0BCFBE06D2C4BCC
:10378000C108E165206E05F11809C1082166606E67
:10379000C1086166244961602449A161187800EB81
:1037A00009021168D81D4FF0080890F800C008FA07
:1037B0000CFC21EA0C01116099784944D1F800A071
:1037C000877808FA07F72AEA070AC1F800A01B79E8
:1037D0004B44D3F80090007908FA00F829EA080071
:1037E0001860B4F870006863B4F87000A863B4F8A7
:1037F0007000E863106840EA0C0010600868384305
:103800000860186840EA0800186084F83A60296A7D
:1038100040F2555008432862BDE8F087613900083E
:103820002B3E0008B7390008353800086F3E000805
:103830005E61000870B4826F9268136A23F480534B
:10384000136290F83AC02422836F02EB8C029A58DC
:1038500014684FF6FF7202EA44053C2404EB8C0422
:103860001B591B6802EA43043C4A530CBCF1060F87
:1038700066D2DFE80CF01D414103031DD0F85CC0A7
:10388000ACEB050C1CF5004FD8BF0A8005DDBCF57C
:10389000004FACBF0B80A1F800C0D0F860C0ACEB0B
:1038A000040C1CF5004F47DDBCF5004F3FDA45E046
:1038B000D0F860C0ACEB050C1CF5004FD8BF4A80B7
:1038C00005DDBCF5004FACBF4B80A1F802C0D0F8BD
:1038D00064C0ACEB040CB1F90240A444CCF1000C80
:1038E000BCF5004FA8BF0B802ADA1CF5004FD4BFEF
:1038F0000A80A1F800C023E0D0F85CC0ACEB050C56
:103900001CF5004FD8BF0A8005DDBCF5004FACBFE9
:103910000B80A1F800C0D0F864C0ACEB040CB1F986
:103920000040A444CCF1000CBCF5004F01DB4B80FF
:1039300006E01CF5004F01DC4A8001E0A1F802C05E
:103940000A88A0F848204A88A0F84A200A884988AE
:1039500011444942A0F84C1070BC70470180FFFF31
:10396000826F9268136A23F48053136290F8732075
:10397000102A1CD290F872304FF0240C826F0CEB9E
:103980008303D2581268C36D4FF03C0C1A44C265D1
:1039900090F87230826F0CEB8303D2581268036E7A
:1039A0001A44026690F87320521C80F8732000209D
:1039B000088048807047826F9268136A23F48053AE
:1039C000136290F87320102A10D290F872304FF0E2
:1039D0003C0C826F0CEB8303D2581268436E1A447E
:1039E000426690F87320521C80F8732000200880F3
:1039F0004880704730B4836F9968D3E90023D1F8C9
:103A000000C02CF0010CC1F800C0D0F878C09CF8C0
:103A100090C0BCF1000F09D06FF0800CC1F810C04D
:103A2000D1F80CC04CF0800CC1F80CC0D1F814C017
:103A30004CF0010CC1F814C0D0F878C09CF88C4050
:103A4000022C05D090F846C0BCF1000F17D01CE046
:103A50009CF88D40012C04BF9CF88EC0BCF1030F74
:103A60000DD14FF0010CC1F830C0D1F814C04CF0AA
:103A7000010CC1F814C04FF0030CC1F830C0B0F80D
:103A800070C0ACF1010CC1F824C0DFF86CC0A1F12A
:103A900080454FF48014DCF80C10B5F580350CBF70
:103AA00041F0010141F00201CCF80C100EBF846618
:103AB0004FF4F0118166916841F0010191609968BD
:103AC00041F0010199606FF004011160516841F00B
:103AD00080015160D16A21F47001D162916B21F4AF
:103AE00040119163996B21F4401199630021C466E0
:103AF000A0F84E1030BC7047002004E090F874200D
:103B00000021012A03D14021002280F874200846B8
:103B10007047000070B50546806F846895F84700CF
:103B2000012818BF70BD602201212046FEF730FD3C
:103B3000206A40F001002062A86F90F88F000128F1
:103B400004BF206A40F0040005D0022804BF206AA8
:103B500020F0040000D12062B5F8700040086063D6
:103B6000602210212046FEF713FD206A40F010006D
:103B70002062A86F90F88F00012804BF206A40F0EF
:103B8000400005D0022804BF206A20F0400000D188
:103B90002062B5F870004008A06360224FF4807185
:103BA0002046FEF7F5FC206A40F480702062A86F82
:103BB00090F88F00012804BF206A40F4806005D08F
:103BC000022804BF206A20F4806000D12062B5F88A
:103BD00070004008E063064868600648686106486F
:103BE000E8600648A860002085F8470070BD000026
:103BF00035380008F5400008473F0008F53E00084A
:103C000070B50546806F846895F8470000283ED15E
:103C1000602201212046FEF7BBFC206A40F0010033
:103C20002062206A20F00400206200206063A86FF8
:103C300090F88F00012802D002280DD019E0102240
:103C400011462046FEF7A4FC206A20F010002062F6
:103C5000206A40F040000BE0202210212046FEF7B1
:103C600097FC206A40F010002062206A20F040009B
:103C7000206270224FF480712046FEF789FC206A92
:103C800020F480702062206A20F480602062064860
:103C90006860064868610648E8600648A860012038
:103CA00085F8470070BD0000ED3C0008E53D0008C8
:103CB000353D0008F53E0008836FB0F870C002463D
:103CC0009B680CFB01F1090C41865963032180F8C4
:103CD0003A10186A10F4805018BF0120118F012982
:103CE00018BF70470120002111877047826F9268CA
:103CF000136A23F48053136290F83A304FF03C0C6F
:103D0000826F0CEB8303D2581268006E524200EBB4
:103D10004200074A9042D8BF104605DD47F6FF72C1
:103D20009042A8BF47F6FF700880488070470000A7
:103D30000180FFFF10B4816F6FF0010389680B6190
:103D40000A6912F0010FFBD00B6101224A63B0F83F
:103D50007020521F0A640A6912F0010FFBD00B6138
:103D60004A6C42F480624A644A6C42F400424A64FB
:103D7000826F92F88FC0BCF1020F2CD1D1F820C015
:103D800040F255541CEA040FD2F80CC010D09269CE
:103D9000CCF81820D0F878C0DCF81020DCF81CC073
:103DA000C2F818C0826F5069128C1204826112E04E
:103DB000128B1204CCF81820D0F878C0DCF8102050
:103DC000BCF81CC04FEA0C4CC2F818C0806F4269A6
:103DD000008C000490610B61C86840F00100C8606D
:103DE00010BC7047816F002289684A63931E0B6183
:103DF0000A6912F0010FFBD00B614A6C42F40042D9
:103E00004A64816F91F88F20022A18BF7047CA68F0
:103E100089699161826F1169928B12048A61806F46
:103E20004169008C0004886170474FF48011C166BD
:103E300090F8721080F83A10B0F87010491E8AB2EB
:103E40000146806F4B8E806843638B8E8363CB8E7D
:103E5000C3630264006A10F4805018BF01200A8F07
:103E6000012A18BF7047012000220A87704730B42A
:103E7000856F818FB0F87020B5F88640A2EB010CF9
:103E8000C38F1FFA8CFCA44506D9032180F83A1091
:103E900091B2491E89B215E0CB1A9BB2B3EB4C0F1D
:103EA00084BFB5F88820891A0BD8214489B2914281
:103EB00008D34FF40012C266B0F87020C1EB420183
:103EC000491E89B2AB680246408E5863908E986353
:103ED000D08ED8631964186A10F4805018BF01207E
:103EE000118F01291CBF30BC7047012000211187B0
:103EF00030BC7047816F8968CA6822F00102CA60CD
:103F0000002280F842204A6C22F400424A64826F08
:103F100092F88F30022B0DD1D368128B12049A6164
:103F2000836F1A699B8B1B049361826F5069128C9B
:103F3000120482616FF001020A61086910F0010F3A
:103F4000FBD00A61704710B4816F0022896880F845
:103F50004220B0F8702052084A63B0F8702052082E
:103F60008A63B0F870205208CA63B0F87020521FFC
:103F70000A646FF001030B610A6912F0010FFBD0B4
:103F80000B614A6C42F480624A644A6C42F400421B
:103F90004A64826F92F88FC0BCF1020F1BD1D1F836
:103FA00020C040F2555434EA0C0CD2F80CC019D0A1
:103FB000128B1204CCF81820D0F878C0DCF810204E
:103FC000BCF81CC04FEA0C4CC2F818C0826F506994
:103FD000128C120482610B61C86840F00100C86055
:103FE00010BC70479269CCF81820D0F878C0DCF883
:103FF0001020DCF81CC0C2F818C0826F5069126A29
:10400000E8E730B4D0F878C0DCE90012DCF808301A
:104010000C6804F00C04082C05D0002C08BFBCF878
:1040200084C008D018E0D1F800C00CF00C0CBCF132
:104030000C0FF8D110E05C6A6445FCD3D1F800C0E5
:104040000CF00C0CBCF1080F06D1D1F800C00CF03C
:104050000C0CBCF10C0FF8D1D1F808C02CF4401CAA
:10406000C1F808C0D2F808C02CF4401CC2F808C03F
:10407000D0F878C010F83A4F542505EB84045CF86A
:1040800004C0C1F838C0D0F83EC010F82E4B6C25E3
:1040900005EB84045CF804C0C2F838C0D0F800C056
:1040A0008C680CF4702C24F4702444EA0C0CC1F8D5
:1040B00008C050F804CB94680CF4702C24F47024DD
:1040C00044EA0C0CC2F808C0D3F820C04CF4805C61
:1040D000C3F820C00368D1F808C04CEA03038B6022
:1040E00001689368194391604FF4801140F82619D4
:1040F00030BC7047816F0122D31E896880F842204E
:104100000B6100224A638A63CA630A6912F0010FD5
:10411000FBD00B614A6C42F400424A64816F91F813
:104120008F20022A18BF7047CA6889699161816F20
:104130000A69C9699161816F4869096A816170473B
:104140001D4910B451F82020D2F800C0127902EBBA
:104150004203092A99BF4FF0007444EA0353174CF5
:1041600004EB03531A434FF4407494FAA4F44FF44D
:104170000073B4FA84F4E3400CEB8303D3F82CC04F
:1041800002F01F022CF01F0C4CEA0202DA6251F816
:1041900020201268D36C0123520102F18442C2F83C
:1041A000783151F820000068016811F0020FFBD04F
:1041B000C06C10BC80B2704728080020000020FEB0
:1041C00010B50E4C6078012818BF10BD2078FFF79D
:1041D000B7FF6080014602206070094A207852F8DB
:1041E0003030002B08BF10BD4FF0000C02EBC002B6
:1041F00084F801C05268BDE8104018470606002048
:104200003808002070B4FF223C4B002153F821C035
:10421000BCF1000F1DD09CF804400579AC4206D1DA
:10422000DCF800C00468A44504BF0A460421491C08
:10423000C9B20429EAD3042A5CD243F82200304BE5
:10424000002143F8321001688B6813F0010F1AD176
:1042500003E0042A88BF0A46E9E74B6823F02003FD
:104260004B6001686FF002030B6001684B6823F03C
:1042700080034B6001686FF004030B6001688B687A
:1042800043F001038B600168CB6A23F47003CB62B7
:104290000179D0F800C04FF00074092901EB410307
:1042A00092BF44EA0353174D05EB03531943836848
:1042B00094FAA4F401F00070B4FA84F4E0400CEB3A
:1042C0008000C46801F0F87C4FF0F87191FAA1F514
:1042D000B5FA85F591FAA1F12CFA05F50726B1FAA0
:1042E00081F106FA05F52CFA01F1AC4303FA01F16C
:1042F0002143C16070BC10467047000028080020B0
:1043000038080020000020FE002181604160C1606B
:10431000016101214161704790F84800704701EB4D
:10432000410100EB81008089704701EB410100EB06
:104330008100B0F90E00704701EB410100EB8100F4
:10434000B0F91000704701EB410100EB8100828160
:10435000704701EB410100EB8100C281704701EB26
:10436000410100EB810002827047B0F90C007047F8
:10437000B0F904007047B0F910007047B0F90C10A4
:10438000B0F91400C1EBC13191FBF0F000B27047FD
:1043900030B4B1F90050012490F803C00023027832
:1043A000002DBABF694289B20988858A8D4238BF1B
:1043B0000123C58A8D4288BF0123B0F9121000295C
:1043C000BABF494289B2418A058B8D4228BF002B72
:1043D00004D062453CBF511CCAB202E0624538BFFE
:1043E0000022624508BF00240270204630BC70479E
:1043F00070B50546007800280CBFAC686C68E968A9
:10440000012904D9AA69A1F10101144405E005D1EB
:1044100069884FEA01444FF00001E960012805D0A6
:10442000E01704EB10400014AC6070BDE01704EB23
:10443000104006146869FFF798FF301A01B2286926
:10444000FEF7BEFF0104C5E9014170BD01780129F5
:1044500018BF704700690021FEF7A9BF2DE9F041A0
:104460000446007817460D46012660B16068C11702
:1044700000EB1140E18B0014A942A4BFB4F9241051
:104480008D4212DA0FE0204600F051F8E18CA9428B
:1044900005DAB4F9281000268D421CDA03E0B4F9DD
:1044A00028108D4208DA002615E0218C8D42BCBF11
:1044B000B4F92210A942F6DB87B16580A18B4FF4D5
:1044C0007A727943B1FBF2F1491C281A000490FB7F
:1044D000F1F0E160A0613046BDE8F0812178280468
:1044E000012914BFA06060600020E060F2E710B511
:1044F00004464069FFF739FF0004606010BD0146C3
:10450000C28D098E62F30F0061F31F407047C08BAC
:1045100070474068C11700EB114000147047B0F9B4
:104520002C007047B0F924007047406970478068DC
:10453000C11700EB114000147047C0E9041290F855
:104540002A100170818D09044160C18D09048160C8
:1045500000214180C1608161704701700021C1600C
:1045600070470021C16081617047027800210B2AE9
:1045700004D1092101700021818001210846704782
:10458000B0F802C003784CEA010C2CEA0202428027
:10459000B0F804C00A2B4CEA0101818005D012B1A9
:1045A0000A2101700B4618467047002AFBD10B21E7
:1045B00001700B46F7E78188408841EA0040704768
:1045C000007870470021017041808180704710B5EC
:1045D00002780024152A6CD2DFE802F00E1B30337B
:1045E000525E636669706B6B0B21262B3D424D5802
:1045F0004800002966D05CE003291CBF01290C2972
:1046000060D0072903D000228021FFF7B9FF2046A0
:1046100010BD07291CBF0D290E2953D049E00E29D2
:1046200018BF07294ED044E00F2918BF072949D0E9
:104630003FE0022918BF072944D03AE0072941D0BA
:1046400037E0072918BF10293CD004291CBF1129C5
:10465000012937D02DE0112918BF072932D028E0D1
:1046600012291CBF072914292CD022E0122918BFB7
:10467000072927D01DE0042918BF072922D018E0F8
:1046800013291CBF072905291CD012E004291CBFCF
:104690000729052916D00CE0062918BF072911D0D3
:1046A00007E007290ED004E008290BD001E0092912
:1046B00008D0032918BF0129A9D0A2E7002918BFF3
:1046C0000C29F6D101240170A1E7000010B5084CB7
:1046D0002078022805D1FCF745FFFDF715FB0020E7
:1046E0002070C0B2401C2070BDE81040FEF7B0BC86
:1046F0000A06002030B593B000241E4802940394AB
:10470000049405940C940D940E940F9410940168E5
:1047100041F080510160006800F08050119016480F
:10472000016841F4804101600068022500F4804086
:10473000119001200090000401908001CDE9065005
:104740000420CDE90A50A821CDE908016846FDF70B
:10475000CFF80F20CDE90C054FF4A050CDE90E4065
:10476000E802109005210CA8FCF7AEFFFDF75AF8FF
:1047700013B030BD4038024000700040044801686A
:1047800041F47001016003494FF000600860704718
:1047900088ED00E008ED00E0084810B5806F806803
:1047A000016911F0800F05D06FF0800101610348AD
:1047B000FEF78AFFBDE81040FEF75ABCE00100207A
:1047C00004486FF00101806F806801610148FFF7C4
:1047D00018BC0000E001002010B50D4CE06A016932
:1047E00011F0010F05D06FF0010101612046FCF7C7
:1047F000CFF9E06A016911F0020F08BF10BD6FF038
:1048000002010161BDE810400148FCF74FB800000B
:104810005C020020F0B402682B4B2C4C2C4D2D4E2A
:10482000DFF8B4C0984218BFB0F1804F07D0A04263
:1048300018BFA84203D0B04218BF604503D14F68EB
:1048400022F070023A43984218BFB0F1804F25D051
:10485000A04218BFA84221D0B04218BF60451DD069
:10486000A0F18044B4F5A0341CBFA0F18044B4F59D
:10487000A23413D0A0F18044B4F5A4341CBFA0F13D
:104880008044B4F5C05409D0A0F18044B4F5E0549C
:104890001CBFA0F18044B4F5005403D1CC6822F4CD
:1048A000407222434C6922F08002224302608A68EF
:1048B000C2620A688262984212BF60450969016358
:1048C00001214161F0BC704700000140000400403C
:1048D00000080040000C00400004014070B4026A6F
:1048E00022F010020262026A4368D0F818C00C6815
:1048F0002CF4E64C4CEA042C8C6822F0200242EAAC
:104900000412104C104DA04218BFA84206D1CE6828
:1049100022F0800242EA061222F04002A04218BFB2
:10492000A84207D14C6923F4406343EA84038C69AD
:1049300043EA84034360C0F818C049688163026297
:1049400070BC704700000140000401400268936899
:10495000D1F804C023F070034CEA0303D1F800C07F
:1049600023F007034CEA030393604A6812F00F0F29
:1049700059D11211082A56D2DFE802F05555555583
:10498000122B41040068D1E90232D1F810C08168CD
:1049900043EA0C2321F47F411A431143816042E032
:1049A0000A68052A04BF012070470268136AD2F81A
:1049B00020C02CF0010CC2F820C00268D2F818C048
:1049C00009692CF0F00C4CEA011191610068036256
:1049D00029E000680B698A68016AD0F820C02CF0D1
:1049E000010CC0F820C0D0F818C021F00A012CF04A
:1049F000F00C4CEA031311438361016213E0006879
:104A00008A680969036A23F010030362D0F818C0AA
:104A1000036A2CF4704C4CEA013123F0A00343EA02
:104A20000212816102620020704730B4D0F820C0C9
:104A30002CF0010CC0F820C0D0F818C0046AA0F116
:104A40008045B5F5803518BFB0F1804F1FD0A0F17B
:104A50008045B5F580651CBFA0F18045B5F50065C2
:104A600015D0A0F18045B5F540651CBFA0F180458B
:104A7000B5F582350BD0A0F18045B5F5A0351EBF48
:104A8000A0F18045B5F5C0554CF0010203D12CF0E2
:104A9000030C4CEA02024FF0F00C22F0F0020CEA98
:104AA00003131A4324F00A0301F00A011943826137
:104AB000016230BC7047000003490020898800294A
:104AC00008BF012070470000CC050020054810B544
:104AD0000068FFF70FFA0022BDE81040802102486D
:104AE000FFF74EBDF0050020000600202DE9F84F2D
:104AF0004FF0000A2C48FBF782FD2C480068FFF7B6
:104B000014FD8346FFF734FCDFF8A490074669469E
:104B1000D9F80000FEF7E7FC0098FDF71FFE80467D
:104B20003946FDF741FE234C064631B2B4F9100078
:104B3000411AA9F110000068FEF742FC60F30F056E
:104B4000B4F91200A0EB2641A9F10C000068FEF7B1
:104B500037FC294660F31F4109F108000068FBF7A4
:104B6000DBFB05465846FFF706FC39462846FDF7AD
:104B70005DFE83465946D9F80000FEF7B6FCC4F83E
:104B800016500099E660C4E90018C4F81AB02784EA
:104B9000012805D10022012109F11000FFF7F0FCE6
:104BA0005046BDE8F88F00005C020020D8050020C8
:104BB000F00500209007002038B50020ADF8000077
:104BC00069464F48FBF7B3FC04464E480068FEF7C1
:104BD00037FC4D48FFF7F4FCC01E102828BF38BD35
:104BE000DFE800F00842475A6A7E88131313131354
:104BF0001314233045480068FFF77CFA142000F0B6
:104C0000DDF810214048FFF7E2FC38BDFFF754FF04
:104C1000002808BF38BD3D4800210068FEF742FC6F
:104C200011213948FFF7D3FC38BD3848012100680D
:104C3000FEF738FC002808BF38BD12213248FFF7C4
:104C4000C6FC38BD2E48FBF7FBFC04212E48FFF7BD
:104C5000BEFC002808BF38BD0020FBF731FC2B4804
:104C60000068FFF770F938BD05212748FFF7AFFC52
:104C700038BD0020FBF75AFC0020FBF707FC06219B
:104C80002148FFF7A4FC22480068FFF730FC2148C8
:104C90000068FDF7B9FC38BD1E480068FDF7B4FC9C
:104CA0000020FBF7F3FB002C18BF38BD00222021A9
:104CB0001548FFF765FC38BD14480068FFF71AF97E
:104CC0000020FBF7FDFB0F480068FEF7DAFA4FF40F
:104CD000487000F079F808210B48FFF778FC38BDE0
:104CE00000F078F8002808BF38BD09210648FFF712
:104CF0006EFC38BD00210448FFF769FC38BD000098
:104D00005C020020F405002000060020F0050020D1
:104D1000D8050020D405002006480078012818BFD7
:104D2000704710B5002000F007F8BDE81040FFF70D
:104D300047BA0000CC050020F8B504461B480068BF
:104D400000901B4850F82400FEF7C8FA3DF81410F4
:104D5000184E00EA010556F82400FEF7A1FB40EAD0
:104D60000501C84382B204EB440306F1100000EBD6
:104D700043052846FFF704FC2846FFF721FC0A28D4
:104D800006D00B2804BF56F82400FEF79BFCF8BDA4
:104D900056F82400FEF796FC2046FBF791FB0648E8
:104DA00050F82400FEF76DFAF8BD0000A05E000880
:104DB000EC050020F0050020F40500200149888062
:104DC00070470000CC0500200149C88070470000F2
:104DD000CC05002003490020C988002908BF012014
:104DE00070470000CC0500202DE9F0410446006822
:104DF0000169E26821F44051114301612169A06811
:104E0000E26908436169114308432168CA6822F4D2
:104E1000037222F414421043C86020684169A269F9
:104E200021F4407111434161E16919263227B1F53E
:104E3000004F4F4A4F48504D21684FF0000825D091
:104E4000814218BF914270D1FCF708FD61688B0F59
:104E50008A00A0FB0601FBF7B3F90146A5FB012080
:104E600040096FF01802424301EB820107EB011188
:104E7000A5FB0121490901F0F00202EB001001F04D
:104E80000F01084421688860BDE8F081814218BFA5
:104E9000914224D1FCF7E2FC61684A18A0FB0601AC
:104EA00048EB0803FBF78CF90146A5FB01204209FA
:104EB00008466FF01801514300EB810007EBC0007A
:104EC000A5FB00101301400900F0F80103EB4101BC
:104ED00000F00700084421688860BDE8F081FCF715
:104EE000ADFC61684A18A0FB060148EB0803FBF71C
:104EF00067F90146A5FB0120420908466FF0180139
:104F0000514300EB810007EBC000A5FB001013012B
:104F1000400900F0F80103EB410100F007000844EC
:104F200021688860BDE8F081FFE7FCF787FC6168D5
:104F30008B0F8A00A0FB0601FBF742F90146A5FB97
:104F4000012040096FF01802424301EB820107EB98
:104F50000111A5FB0121490901F0F00202EB00104B
:104F600001F00F01084421688860BDE8F08100006D
:104F700000140140001001401F85EB51002180F812
:104F80001C117047FBF765BA08B508218DF80010B1
:104F900001236A46FF2100F075F808BD38B590F886
:104FA0001C212B4D0446002A4FD094F81D31C9B264
:104FB0008BB10022012B15D094F89AC00CF1020C91
:104FC00063451AD204F19900195494F81D01401C4C
:104FD00084F81D0139E084F89910208A60821D4D03
:104FE0000120F5E784F89A10022084F81D01C8B268
:104FF000802828BF84F81D2127E084F81B116282D5
:10500000D4F82001144DC16821F02001C16084F85A
:105010001C2104F19900FBF705FA94F81B11884252
:105020000AD1D4F808C094F89A3094F8991004F191
:105030009B022068E04708E00A208DF80000012369
:105040006A46FF21204600F01DF8284638BD0000C2
:105050006C6100086E6100087061000890F81C1116
:1050600000291CBF01207047002180F81D1101217B
:1050700080F81C11D0F82001C16841F02001C16006
:105080000220704710B5044690F8970000281CBF16
:10509000012010BD04F1160C2175581E6375C0B2B5
:1050A00007D300BF12F8011B401E0CF8011BC0B251
:1050B000F8D204F11400FBF7B5F984F8960000214A
:1050C00084F89810012184F89710D4F82001C16861
:1050D00041F08001C160022010BD90F89720014688
:1050E000002A08BF704791F89820002A08BF0A7D5F
:1050F0000CD0012A08BF4A7D08D04B7D9B1C9A42E8
:105100003ABF01F11403D25C91F89620D0F8203117
:105110005A604B7D91F898209B1C9A423EBF501CD0
:1051200081F898007047D1F82001C26822F080020F
:10513000C260002081F89700D1E900010847816929
:10514000002908BF704708474169002908BF704718
:105150000847000070B5064C0546A06800F049FA03
:10516000A84218BF70BDA068BDE87040FFF7E7BF58
:105170000C06002070B5026A90F82C0001240F295B
:1051800052F820502AD2DFE801F0291915082A2AFE
:10519000111D21252929292915002846FDF7A4FAE2
:1051A000062804BF2846FDF7D6FA18E02846FDF782
:1051B0009BFA18B12846FDF7CAFA10E02846FDF719
:1051C000BBFA0CE02846FDF76BFA08E02846FDF72D
:1051D00017FA04E02846FDF70BFA00E00024204609
:1051E00070BD000010B5036A90F82C0001EB81013E
:1051F000DFF81CC053F820004B000021CCFB031348
:105200005911A1EBE37109B2FDF73AFA012010BD83
:105210008988888810B5036A90F82C0053F820001C
:10522000FDF735FA012010BD034689209A68002A4F
:1052300008BF704718461047002070472DE9F0411D
:105240008446436A90F82C00DCF82040012553F88E
:10525000203054F820600020002A18BF1570CF4C71
:10526000232900F0708114DC44D2DFE801F04F54B0
:1052700059995E6B707594BDC2C7CCD1D6DB4343E0
:10528000434343434343437A7FE0E5EA84F1F043F9
:10529000EF00022730297BD00BDCA1F124010C297F
:1052A00028D2DFE801F0F1F0EFD5D4EEEDECEBEA37
:1052B000E9F26E296DD010DC402900F0278107DC6F
:1052C0003D2967D03E297CD03F2900F0148111E0B0
:1052D000412977D05B2968D00CE0722904BF1A20DD
:1052E000BDE8F0810CDC6F2979D0702904BFAC488F
:1052F000BDE8F081002A1CBF00211170BDE8F081DB
:10530000732918BF8129F5D1BDE8F081604600F00E
:1053100070F9BDE8F081986ABDE8F041FFF74BB93C
:10532000986ABDE8F041FFF74BB93046FDF7D9F96F
:10533000C0EB0010800084FB00108110A1EBE07036
:10534000BDE8F0811868BDE8F041FEF721B81868A3
:10535000BDE8F041FEF717B81868BDE8F041FEF768
:105360000FB8186BBDE8F04100F0E0BAD86ABDE8AC
:10537000F041FDF7D3BF3046FDF795F9C0EB0010C3
:10538000800084FB00108110A1EBE070BDE8F0818B
:1053900096E01FE05DE03046FDF798F900B2F5E7D2
:1053A0003046BDE8F041FDF786B93046FDF783F998
:1053B0000128BAD13046FDF78CF9C0EB001080000F
:1053C00002E04FE01FE00AE084FB00108110A1EB37
:1053D000E070DBE71868BDE8F041FDF7DCBF186856
:1053E000BDE8F041FDF7D2BF5868BDE8F041FDF7D8
:1053F000CFBF5868BDE8F041FDF7C5BF5868BDE8AC
:10540000F041FDF7BDBF3046FDF760F90014BDE780
:105410009868BDE8F041FDF7BBBF9868BDE8F04172
:10542000FDF7B1BF9868BDE8F041FDF7A9BFD86BA3
:10543000BDE8F041FDF732BF00216046FFF7F4FE02
:10544000A4E701216046FFF7EFFE9FE772E06DE001
:1054500068E0DCF81020002A98D0BDE8F041002177
:1054600060461047DCF81020002A8FD0BDE8F041DC
:1054700001216046104708E08BE086E081E07CE097
:1054800077E072E06DE068E062E09CF82C20DCF8E8
:10549000281051F822200021B7EB127F14BFB5EB82
:1054A000127F9969C2F30362022A14BF012AD969E3
:1054B00000293FF46BAFBDE8F0410846FEF758BF46
:1054C0009CF82C20DCF8281051F822200021B7EBA2
:1054D000127F14BFB5EB127F9969C2F30362022AEF
:1054E00014BF012AD96900293FF450AFBDE8F0414B
:1054F0000846FEF743BF586AFFF709F8C0EB0010F3
:1055000028498000A1FB0010C0083FE7586AFFF758
:1055100009F8C0EB0010800084FB00108110A1EBA3
:10552000E07033E73046FDF7CEF80FE03046FDF788
:10553000CAF810E0596900293FF428AFBDE8F041EE
:105540000846FEF7E9BE3046FDF7B7F800B21DE7A2
:105550003046FDF7B2F8001418E73046FDF7B0F812
:10556000F4E73046FDF7ACF8F5E73046FDF7AEF866
:10557000ECE73046FDF7AAF8EDE73046FDF7BFF857
:10558000E4E73046FDF7BBF8E5E73046FDF7B3F852
:10559000DCE73046FDF7AFF8DDE7000067666666DA
:1055A0007A84A634CDCCCCCC2DE9F0478946416A2B
:1055B00090F82C000124DDF8208051F820001E46D0
:1055C00017464569002D08BF00240FD049462846DC
:1055D000FEF7A5FE388049462846FEF7A6FE308035
:1055E00049462846FEF7A8FEA8F800002046BDE878
:1055F000F08790F82C007047DDF800C0017700219B
:10560000C0E9082380F82C10C0F828C070470000BB
:105610000948418811B14188491E4180818801298A
:1056200002D98188491E81800188012998BF70476D
:105630000188491E018070470C060020037F01226B
:105640008B4294BF002280F82C1010467047000057
:1056500001494F20888070470C0600200149002036
:10566000888070470C060020D0F820C090F82C00ED
:1056700061F30F0319465CF8200062F31F41FDF748
:105680004CB84368002B08BF704718472DE9F0411C
:1056900015460246036A90F82C0001262CB253F8F6
:1056A0002070536A0A2953F8200067D007DC16D20D
:1056B000DFE801F01915153E152F3439555F0E2915
:1056C00079D006DC0B295ED00C2961D00D296DD074
:1056D00005E00F2974D0412977D05B2909D0002635
:1056E0003046BDE8F081E9B21046FFF7A7FF064655
:1056F000F6E705EB8500374A40000021C2FB0010A9
:105700004111A1EBE07001B200223846FCF7B8FF6E
:10571000E6E700682146FDF750FEE1E70068214614
:10572000FDF749FEDCE700682146FDF742FED7E7BA
:1057300015F0FF0F07D13846FCF7D9FF01460022CC
:105740003846FCF7A4FFE8B20128C9D13846FCF777
:10575000C8FF014600223846FCF792FFC0E73846F2
:10576000FCF7B4FF64F30F0001463846FCF7D5FFA1
:10577000B6E740682146FDF720FEB1E740682146C4
:10578000FDF719FEACE740682146FDF712FEA7E7DA
:105790003846FCF79BFF64F31F4001463846FCF790
:1057A000BCFF9DE707E001E00AE00EE080682146CB
:1057B000FDF703FE94E780682146FDF7FCFD8FE7C7
:1057C00080682146FDF7F5FD8AE721463846FCF75B
:1057D000AEFF85E7898888882DE9F0410F46416A48
:1057E00090F82C001D46069E51F820003946446969
:1057F0002046FEF7A8FD2A4639462046FEF7A9FDB9
:10580000324639462046FEF7AAFD0120BDE8F08168
:105810002DE9FF4F83B0234C0546234E2048109FAF
:10582000A060B6E80E1FA0E80E1F96E80E1080E8F4
:105830000E100095DDE904122038203E069BFFF78C
:10584000DBFEA068FFF780FC23220021A068FFF7A1
:1058500018FF24220121A068FFF713FF1348E0601E
:10586000B6E80E1FA0E80E1F96E80E1080E80E1096
:105870000F48FFF787FBA0680E49CDE9001002979B
:105880000D4B0E4A0A49E068FDF726F80095DDE960
:105890000412069BE068FFF7AFFE07B0BDE8F08F8B
:1058A000880300200C060020580300205808002020
:1058B000900400207D4F00085D50000885500008CE
:1058C00038B5194CD4F82001016811F0200F0ED022
:1058D0004068C1B22046FFF761FB0088012804D070
:1058E000022808BFFFF7BAFE01E0FFF7B1FED4F8C7
:1058F0002001006810F0800F1CBF0B48FFF7EDFB84
:10590000D4F82001006810F0080F08BF38BD064821
:10591000FFF73AFBD4F8200101680091406800903D
:10592000BDE83840FFF79ABE90040020C188408847
:105930004843000C70470021018141898180C1806A
:10594000704702E008C8121F08C1002AFAD1704748
:105950007047002001E001C1121F002AFBD17047EF
:1059600098B0FBF707FEFEF7C5FECD48002401689E
:1059700041F002010160016801F00201009101683B
:1059800041F001010160016801F00101009101682D
:1059900041F080010160016801F08001009101681F
:1059A00041F0040101600068009400F004000194DB
:1059B000BD480294039404940594069407940894B3
:1059C00009940A94B7490B9401604FF48031C0E9FF
:1059D000011401210161B549047680F82040CF020D
:1059E000C760C0E90A140121C16180F830404161FB
:1059F000FBF7F0FA01200625CDE9005002904FF4A4
:105A00008019CDE906498DF8154003268DF814005C
:105A100004966946A4480394FBF700F94FF0070A7F
:105A20004FF00208CDE900A869469F48FBF7F6F859
:105A30004FF00E0BCDE900B669469B48FBF7EEF838
:105A40000120CDE908500A9008A99748FBF7EAF928
:105A50000094019497480294039404940594069446
:105A60000794089409940A9491490B940160790170
:105A7000C0E9011401210161047680F820408B49BE
:105A8000C760C0E90A140121C16180F8304041615A
:105A9000FBF7A0FA0120CDE900500290CDE90649BC
:105AA0008DF815408DF814000496694681480394DA
:105AB000FBF7B4F8CDE900A869467E48FBF7AEF8DD
:105AC000CDE900B669467B48FBF7A8F80120CDE98F
:105AD00008500A9008A97748FBF7A4F97749009481
